{
  "_format": "hh-sol-artifact-1",
  "contractName": "NFT_Contract",
  "sourceName": "contracts/NFT_Contract.sol",
  "abi": [
    {
      "inputs": [
        {
          "internalType": "string",
          "name": "baseURI",
          "type": "string"
        }
      ],
      "stateMutability": "nonpayable",
      "type": "constructor"
    },
    {
      "anonymous": false,
      "inputs": [
        {
          "indexed": true,
          "internalType": "address",
          "name": "owner",
          "type": "address"
        },
        {
          "indexed": true,
          "internalType": "address",
          "name": "approved",
          "type": "address"
        },
        {
          "indexed": true,
          "internalType": "uint256",
          "name": "tokenId",
          "type": "uint256"
        }
      ],
      "name": "Approval",
      "type": "event"
    },
    {
      "anonymous": false,
      "inputs": [
        {
          "indexed": true,
          "internalType": "address",
          "name": "owner",
          "type": "address"
        },
        {
          "indexed": true,
          "internalType": "address",
          "name": "operator",
          "type": "address"
        },
        {
          "indexed": false,
          "internalType": "bool",
          "name": "approved",
          "type": "bool"
        }
      ],
      "name": "ApprovalForAll",
      "type": "event"
    },
    {
      "anonymous": false,
      "inputs": [
        {
          "indexed": true,
          "internalType": "address",
          "name": "previousOwner",
          "type": "address"
        },
        {
          "indexed": true,
          "internalType": "address",
          "name": "newOwner",
          "type": "address"
        }
      ],
      "name": "OwnershipTransferred",
      "type": "event"
    },
    {
      "anonymous": false,
      "inputs": [
        {
          "indexed": true,
          "internalType": "address",
          "name": "from",
          "type": "address"
        },
        {
          "indexed": true,
          "internalType": "address",
          "name": "to",
          "type": "address"
        },
        {
          "indexed": true,
          "internalType": "uint256",
          "name": "tokenId",
          "type": "uint256"
        }
      ],
      "name": "Transfer",
      "type": "event"
    },
    {
      "stateMutability": "payable",
      "type": "fallback"
    },
    {
      "inputs": [],
      "name": "_paused",
      "outputs": [
        {
          "internalType": "bool",
          "name": "",
          "type": "bool"
        }
      ],
      "stateMutability": "view",
      "type": "function"
    },
    {
      "inputs": [],
      "name": "_price",
      "outputs": [
        {
          "internalType": "uint256",
          "name": "",
          "type": "uint256"
        }
      ],
      "stateMutability": "view",
      "type": "function"
    },
    {
      "inputs": [
        {
          "internalType": "address",
          "name": "to",
          "type": "address"
        },
        {
          "internalType": "uint256",
          "name": "tokenId",
          "type": "uint256"
        }
      ],
      "name": "approve",
      "outputs": [],
      "stateMutability": "nonpayable",
      "type": "function"
    },
    {
      "inputs": [
        {
          "internalType": "address",
          "name": "owner",
          "type": "address"
        }
      ],
      "name": "balanceOf",
      "outputs": [
        {
          "internalType": "uint256",
          "name": "",
          "type": "uint256"
        }
      ],
      "stateMutability": "view",
      "type": "function"
    },
    {
      "inputs": [
        {
          "internalType": "uint256",
          "name": "tokenId",
          "type": "uint256"
        }
      ],
      "name": "getApproved",
      "outputs": [
        {
          "internalType": "address",
          "name": "",
          "type": "address"
        }
      ],
      "stateMutability": "view",
      "type": "function"
    },
    {
      "inputs": [
        {
          "internalType": "address",
          "name": "owner",
          "type": "address"
        },
        {
          "internalType": "address",
          "name": "operator",
          "type": "address"
        }
      ],
      "name": "isApprovedForAll",
      "outputs": [
        {
          "internalType": "bool",
          "name": "",
          "type": "bool"
        }
      ],
      "stateMutability": "view",
      "type": "function"
    },
    {
      "inputs": [],
      "name": "mint",
      "outputs": [],
      "stateMutability": "payable",
      "type": "function"
    },
    {
      "inputs": [],
      "name": "name",
      "outputs": [
        {
          "internalType": "string",
          "name": "",
          "type": "string"
        }
      ],
      "stateMutability": "view",
      "type": "function"
    },
    {
      "inputs": [],
      "name": "owner",
      "outputs": [
        {
          "internalType": "address",
          "name": "",
          "type": "address"
        }
      ],
      "stateMutability": "view",
      "type": "function"
    },
    {
      "inputs": [
        {
          "internalType": "uint256",
          "name": "tokenId",
          "type": "uint256"
        }
      ],
      "name": "ownerOf",
      "outputs": [
        {
          "internalType": "address",
          "name": "",
          "type": "address"
        }
      ],
      "stateMutability": "view",
      "type": "function"
    },
    {
      "inputs": [],
      "name": "renounceOwnership",
      "outputs": [],
      "stateMutability": "nonpayable",
      "type": "function"
    },
    {
      "inputs": [
        {
          "internalType": "address",
          "name": "from",
          "type": "address"
        },
        {
          "internalType": "address",
          "name": "to",
          "type": "address"
        },
        {
          "internalType": "uint256",
          "name": "tokenId",
          "type": "uint256"
        }
      ],
      "name": "safeTransferFrom",
      "outputs": [],
      "stateMutability": "nonpayable",
      "type": "function"
    },
    {
      "inputs": [
        {
          "internalType": "address",
          "name": "from",
          "type": "address"
        },
        {
          "internalType": "address",
          "name": "to",
          "type": "address"
        },
        {
          "internalType": "uint256",
          "name": "tokenId",
          "type": "uint256"
        },
        {
          "internalType": "bytes",
          "name": "_data",
          "type": "bytes"
        }
      ],
      "name": "safeTransferFrom",
      "outputs": [],
      "stateMutability": "nonpayable",
      "type": "function"
    },
    {
      "inputs": [
        {
          "internalType": "address",
          "name": "operator",
          "type": "address"
        },
        {
          "internalType": "bool",
          "name": "approved",
          "type": "bool"
        }
      ],
      "name": "setApprovalForAll",
      "outputs": [],
      "stateMutability": "nonpayable",
      "type": "function"
    },
    {
      "inputs": [
        {
          "internalType": "bool",
          "name": "val",
          "type": "bool"
        }
      ],
      "name": "setPaused",
      "outputs": [],
      "stateMutability": "nonpayable",
      "type": "function"
    },
    {
      "inputs": [
        {
          "internalType": "bytes4",
          "name": "interfaceId",
          "type": "bytes4"
        }
      ],
      "name": "supportsInterface",
      "outputs": [
        {
          "internalType": "bool",
          "name": "",
          "type": "bool"
        }
      ],
      "stateMutability": "view",
      "type": "function"
    },
    {
      "inputs": [],
      "name": "symbol",
      "outputs": [
        {
          "internalType": "string",
          "name": "",
          "type": "string"
        }
      ],
      "stateMutability": "view",
      "type": "function"
    },
    {
      "inputs": [
        {
          "internalType": "uint256",
          "name": "index",
          "type": "uint256"
        }
      ],
      "name": "tokenByIndex",
      "outputs": [
        {
          "internalType": "uint256",
          "name": "",
          "type": "uint256"
        }
      ],
      "stateMutability": "view",
      "type": "function"
    },
    {
      "inputs": [],
      "name": "tokenIds",
      "outputs": [
        {
          "internalType": "uint256",
          "name": "",
          "type": "uint256"
        }
      ],
      "stateMutability": "view",
      "type": "function"
    },
    {
      "inputs": [
        {
          "internalType": "address",
          "name": "owner",
          "type": "address"
        },
        {
          "internalType": "uint256",
          "name": "index",
          "type": "uint256"
        }
      ],
      "name": "tokenOfOwnerByIndex",
      "outputs": [
        {
          "internalType": "uint256",
          "name": "",
          "type": "uint256"
        }
      ],
      "stateMutability": "view",
      "type": "function"
    },
    {
      "inputs": [
        {
          "internalType": "uint256",
          "name": "tokenId",
          "type": "uint256"
        }
      ],
      "name": "tokenURI",
      "outputs": [
        {
          "internalType": "string",
          "name": "",
          "type": "string"
        }
      ],
      "stateMutability": "view",
      "type": "function"
    },
    {
      "inputs": [],
      "name": "totalSupply",
      "outputs": [
        {
          "internalType": "uint256",
          "name": "",
          "type": "uint256"
        }
      ],
      "stateMutability": "view",
      "type": "function"
    },
    {
      "inputs": [
        {
          "internalType": "address",
          "name": "from",
          "type": "address"
        },
        {
          "internalType": "address",
          "name": "to",
          "type": "address"
        },
        {
          "internalType": "uint256",
          "name": "tokenId",
          "type": "uint256"
        }
      ],
      "name": "transferFrom",
      "outputs": [],
      "stateMutability": "nonpayable",
      "type": "function"
    },
    {
      "inputs": [
        {
          "internalType": "address",
          "name": "newOwner",
          "type": "address"
        }
      ],
      "name": "transferOwnership",
      "outputs": [],
      "stateMutability": "nonpayable",
      "type": "function"
    },
    {
      "inputs": [],
      "name": "withdraw",
      "outputs": [],
      "stateMutability": "nonpayable",
      "type": "function"
    },
    {
      "stateMutability": "payable",
      "type": "receive"
    }
  ],
  "bytecode": "0x60806040526000600c553480156200001657600080fd5b5060405162002077380380620020778339810160408190526200003991620001eb565b604080518082018252600e81526d159a5c985d12dbda1b1a57d3919560921b602080830191825283518085019094526002845261564b60f01b90840152815191929162000089916000916200012f565b5080516200009f9060019060208401906200012f565b505050620000bc620000b6620000d960201b60201c565b620000dd565b8051620000d190600b9060208401906200012f565b505062000304565b3390565b600a80546001600160a01b038381166001600160a01b0319831681179093556040519116919082907f8be0079c531659141344cd1fd0a4f28419497f9722a3daafe3b4186f6b6457e090600090a35050565b8280546200013d90620002c7565b90600052602060002090601f016020900481019282620001615760008555620001ac565b82601f106200017c57805160ff1916838001178555620001ac565b82800160010185558215620001ac579182015b82811115620001ac5782518255916020019190600101906200018f565b50620001ba929150620001be565b5090565b5b80821115620001ba5760008155600101620001bf565b634e487b7160e01b600052604160045260246000fd5b60006020808385031215620001ff57600080fd5b82516001600160401b03808211156200021757600080fd5b818501915085601f8301126200022c57600080fd5b815181811115620002415762000241620001d5565b604051601f8201601f19908116603f011681019083821181831017156200026c576200026c620001d5565b8160405282815288868487010111156200028557600080fd5b600093505b82841015620002a957848401860151818501870152928501926200028a565b82841115620002bb5760008684830101525b98975050505050505050565b600181811c90821680620002dc57607f821691505b60208210811415620002fe57634e487b7160e01b600052602260045260246000fd5b50919050565b611d6380620003146000396000f3fe60806040526004361061015b5760003560e01c806342842e0e116100c85780638da5cb5b11610084578063b88d4fde11610061578063b88d4fde146103dd578063c87b56dd146103fd578063e985e9c51461041d578063f2fde38b1461046657005b80638da5cb5b1461038a57806395d89b41146103a8578063a22cb465146103bd57005b806342842e0e146102df5780634f6ccce7146102ff5780636352211e1461031f57806370a082311461033f578063714cff561461035f578063715018a61461037557005b806316c61ccc1161011757806316c61ccc1461023b57806318160ddd14610255578063235b6ea11461027457806323b872dd1461028a5780632f745c59146102aa5780633ccfd60b146102ca57005b806301ffc9a71461016457806306fdde0314610199578063081812fc146101bb578063095ea7b3146101f35780631249c58b1461021357806316c38b3c1461021b57005b3661016257005b005b34801561017057600080fd5b5061018461017f3660046117ff565b610486565b60405190151581526020015b60405180910390f35b3480156101a557600080fd5b506101ae6104b1565b6040516101909190611874565b3480156101c757600080fd5b506101db6101d6366004611887565b610543565b6040516001600160a01b039091168152602001610190565b3480156101ff57600080fd5b5061016261020e3660046118bc565b6105dd565b6101626106f3565b34801561022757600080fd5b506101626102363660046118f6565b6107c0565b34801561024757600080fd5b50600d546101849060ff1681565b34801561026157600080fd5b506008545b604051908152602001610190565b34801561028057600080fd5b50610266600c5481565b34801561029657600080fd5b506101626102a5366004611911565b6107fd565b3480156102b657600080fd5b506102666102c53660046118bc565b61082e565b3480156102d657600080fd5b506101626108c4565b3480156102eb57600080fd5b506101626102fa366004611911565b61099f565b34801561030b57600080fd5b5061026661031a366004611887565b6109ba565b34801561032b57600080fd5b506101db61033a366004611887565b610a4d565b34801561034b57600080fd5b5061026661035a36600461194d565b610ac4565b34801561036b57600080fd5b50610266600e5481565b34801561038157600080fd5b50610162610b4b565b34801561039657600080fd5b50600a546001600160a01b03166101db565b3480156103b457600080fd5b506101ae610b7f565b3480156103c957600080fd5b506101626103d8366004611968565b610b8e565b3480156103e957600080fd5b506101626103f83660046119b1565b610b9d565b34801561040957600080fd5b506101ae610418366004611887565b610bd5565b34801561042957600080fd5b50610184610438366004611a8d565b6001600160a01b03918216600090815260056020908152604080832093909416825291909152205460ff1690565b34801561047257600080fd5b5061016261048136600461194d565b610cb0565b60006001600160e01b0319821663780e9d6360e01b14806104ab57506104ab82610d4b565b92915050565b6060600080546104c090611ab7565b80601f01602080910402602001604051908101604052809291908181526020018280546104ec90611ab7565b80156105395780601f1061050e57610100808354040283529160200191610539565b820191906000526020600020905b81548152906001019060200180831161051c57829003601f168201915b5050505050905090565b6000818152600260205260408120546001600160a01b03166105c15760405162461bcd60e51b815260206004820152602c60248201527f4552433732313a20617070726f76656420717565727920666f72206e6f6e657860448201526b34b9ba32b73a103a37b5b2b760a11b60648201526084015b60405180910390fd5b506000908152600460205260409020546001600160a01b031690565b60006105e882610a4d565b9050806001600160a01b0316836001600160a01b031614156106565760405162461bcd60e51b815260206004820152602160248201527f4552433732313a20617070726f76616c20746f2063757272656e74206f776e656044820152603960f91b60648201526084016105b8565b336001600160a01b038216148061067257506106728133610438565b6106e45760405162461bcd60e51b815260206004820152603860248201527f4552433732313a20617070726f76652063616c6c6572206973206e6f74206f7760448201527f6e6572206e6f7220617070726f76656420666f7220616c6c000000000000000060648201526084016105b8565b6106ee8383610d9b565b505050565b600d5460ff16156107465760405162461bcd60e51b815260206004820152601960248201527f436f6e74726163742063757272656e746c79207061757365640000000000000060448201526064016105b8565b600c543410156107985760405162461bcd60e51b815260206004820152601960248201527f45746865722073656e74206973206e6f7420636f72726563740000000000000060448201526064016105b8565b6001600e60008282546107ab9190611b08565b925050819055506107be33600e54610e09565b565b600a546001600160a01b031633146107ea5760405162461bcd60e51b81526004016105b890611b20565b600d805460ff1916911515919091179055565b6108073382610e23565b6108235760405162461bcd60e51b81526004016105b890611b55565b6106ee838383610f1a565b600061083983610ac4565b821061089b5760405162461bcd60e51b815260206004820152602b60248201527f455243373231456e756d657261626c653a206f776e657220696e646578206f7560448201526a74206f6620626f756e647360a81b60648201526084016105b8565b506001600160a01b03919091166000908152600660209081526040808320938352929052205490565b600a546001600160a01b031633146108ee5760405162461bcd60e51b81526004016105b890611b20565b6000610902600a546001600160a01b031690565b60405190915047906000906001600160a01b0384169083908381818185875af1925050503d8060008114610952576040519150601f19603f3d011682016040523d82523d6000602084013e610957565b606091505b50509050806106ee5760405162461bcd60e51b81526020600482015260146024820152732330b4b632b2103a379039b2b7321022ba3432b960611b60448201526064016105b8565b6106ee83838360405180602001604052806000815250610b9d565b60006109c560085490565b8210610a285760405162461bcd60e51b815260206004820152602c60248201527f455243373231456e756d657261626c653a20676c6f62616c20696e646578206f60448201526b7574206f6620626f756e647360a01b60648201526084016105b8565b60088281548110610a3b57610a3b611ba6565b90600052602060002001549050919050565b6000818152600260205260408120546001600160a01b0316806104ab5760405162461bcd60e51b815260206004820152602960248201527f4552433732313a206f776e657220717565727920666f72206e6f6e657869737460448201526832b73a103a37b5b2b760b91b60648201526084016105b8565b60006001600160a01b038216610b2f5760405162461bcd60e51b815260206004820152602a60248201527f4552433732313a2062616c616e636520717565727920666f7220746865207a65604482015269726f206164647265737360b01b60648201526084016105b8565b506001600160a01b031660009081526003602052604090205490565b600a546001600160a01b03163314610b755760405162461bcd60e51b81526004016105b890611b20565b6107be60006110c1565b6060600180546104c090611ab7565b610b99338383611113565b5050565b610ba73383610e23565b610bc35760405162461bcd60e51b81526004016105b890611b55565b610bcf848484846111e2565b50505050565b6000818152600260205260409020546060906001600160a01b0316610c545760405162461bcd60e51b815260206004820152602f60248201527f4552433732314d657461646174613a2055524920717565727920666f72206e6f60448201526e3732bc34b9ba32b73a103a37b5b2b760891b60648201526084016105b8565b6000610c5e611215565b90506000815111610c7e5760405180602001604052806000815250610ca9565b80610c8884611224565b604051602001610c99929190611bbc565b6040516020818303038152906040525b9392505050565b600a546001600160a01b03163314610cda5760405162461bcd60e51b81526004016105b890611b20565b6001600160a01b038116610d3f5760405162461bcd60e51b815260206004820152602660248201527f4f776e61626c653a206e6577206f776e657220697320746865207a65726f206160448201526564647265737360d01b60648201526084016105b8565b610d48816110c1565b50565b60006001600160e01b031982166380ac58cd60e01b1480610d7c57506001600160e01b03198216635b5e139f60e01b145b806104ab57506301ffc9a760e01b6001600160e01b03198316146104ab565b600081815260046020526040902080546001600160a01b0319166001600160a01b0384169081179091558190610dd082610a4d565b6001600160a01b03167f8c5be1e5ebec7d5bd14f71427d1e84f3dd0314c0f7b2291e5b200ac8c7c3b92560405160405180910390a45050565b610b99828260405180602001604052806000815250611322565b6000818152600260205260408120546001600160a01b0316610e9c5760405162461bcd60e51b815260206004820152602c60248201527f4552433732313a206f70657261746f7220717565727920666f72206e6f6e657860448201526b34b9ba32b73a103a37b5b2b760a11b60648201526084016105b8565b6000610ea783610a4d565b9050806001600160a01b0316846001600160a01b03161480610eee57506001600160a01b0380821660009081526005602090815260408083209388168352929052205460ff165b80610f125750836001600160a01b0316610f0784610543565b6001600160a01b0316145b949350505050565b826001600160a01b0316610f2d82610a4d565b6001600160a01b031614610f915760405162461bcd60e51b815260206004820152602560248201527f4552433732313a207472616e736665722066726f6d20696e636f72726563742060448201526437bbb732b960d91b60648201526084016105b8565b6001600160a01b038216610ff35760405162461bcd60e51b8152602060048201526024808201527f4552433732313a207472616e7366657220746f20746865207a65726f206164646044820152637265737360e01b60648201526084016105b8565b610ffe838383611355565b611009600082610d9b565b6001600160a01b0383166000908152600360205260408120805460019290611032908490611bfb565b90915550506001600160a01b0382166000908152600360205260408120805460019290611060908490611b08565b909155505060008181526002602052604080822080546001600160a01b0319166001600160a01b0386811691821790925591518493918716917fddf252ad1be2c89b69c2b068fc378daa952ba7f163c4a11628f55a4df523b3ef91a4505050565b600a80546001600160a01b038381166001600160a01b0319831681179093556040519116919082907f8be0079c531659141344cd1fd0a4f28419497f9722a3daafe3b4186f6b6457e090600090a35050565b816001600160a01b0316836001600160a01b031614156111755760405162461bcd60e51b815260206004820152601960248201527f4552433732313a20617070726f766520746f2063616c6c65720000000000000060448201526064016105b8565b6001600160a01b03838116600081815260056020908152604080832094871680845294825291829020805460ff191686151590811790915591519182527f17307eab39ab6107e8899845ad3d59bd9653f200f220920489ca2b5937696c31910160405180910390a3505050565b6111ed848484610f1a565b6111f98484848461140d565b610bcf5760405162461bcd60e51b81526004016105b890611c12565b6060600b80546104c090611ab7565b6060816112485750506040805180820190915260018152600360fc1b602082015290565b8160005b8115611272578061125c81611c64565b915061126b9050600a83611c95565b915061124c565b60008167ffffffffffffffff81111561128d5761128d61199b565b6040519080825280601f01601f1916602001820160405280156112b7576020820181803683370190505b5090505b8415610f12576112cc600183611bfb565b91506112d9600a86611ca9565b6112e4906030611b08565b60f81b8183815181106112f9576112f9611ba6565b60200101906001600160f81b031916908160001a90535061131b600a86611c95565b94506112bb565b61132c838361150b565b611339600084848461140d565b6106ee5760405162461bcd60e51b81526004016105b890611c12565b6001600160a01b0383166113b0576113ab81600880546000838152600960205260408120829055600182018355919091527ff3f7a9fe364faab93b216da50a3214154f22a0a2b415b23a84c8169e8b636ee30155565b6113d3565b816001600160a01b0316836001600160a01b0316146113d3576113d38382611659565b6001600160a01b0382166113ea576106ee816116f6565b826001600160a01b0316826001600160a01b0316146106ee576106ee82826117a5565b60006001600160a01b0384163b1561150057604051630a85bd0160e11b81526001600160a01b0385169063150b7a0290611451903390899088908890600401611cbd565b6020604051808303816000875af192505050801561148c575060408051601f3d908101601f1916820190925261148991810190611cfa565b60015b6114e6573d8080156114ba576040519150601f19603f3d011682016040523d82523d6000602084013e6114bf565b606091505b5080516114de5760405162461bcd60e51b81526004016105b890611c12565b805181602001fd5b6001600160e01b031916630a85bd0160e11b149050610f12565b506001949350505050565b6001600160a01b0382166115615760405162461bcd60e51b815260206004820181905260248201527f4552433732313a206d696e7420746f20746865207a65726f206164647265737360448201526064016105b8565b6000818152600260205260409020546001600160a01b0316156115c65760405162461bcd60e51b815260206004820152601c60248201527f4552433732313a20746f6b656e20616c7265616479206d696e7465640000000060448201526064016105b8565b6115d260008383611355565b6001600160a01b03821660009081526003602052604081208054600192906115fb908490611b08565b909155505060008181526002602052604080822080546001600160a01b0319166001600160a01b03861690811790915590518392907fddf252ad1be2c89b69c2b068fc378daa952ba7f163c4a11628f55a4df523b3ef908290a45050565b6000600161166684610ac4565b6116709190611bfb565b6000838152600760205260409020549091508082146116c3576001600160a01b03841660009081526006602090815260408083208584528252808320548484528184208190558352600790915290208190555b5060009182526007602090815260408084208490556001600160a01b039094168352600681528383209183525290812055565b60085460009061170890600190611bfb565b6000838152600960205260408120546008805493945090928490811061173057611730611ba6565b90600052602060002001549050806008838154811061175157611751611ba6565b600091825260208083209091019290925582815260099091526040808220849055858252812055600880548061178957611789611d17565b6001900381819060005260206000200160009055905550505050565b60006117b083610ac4565b6001600160a01b039093166000908152600660209081526040808320868452825280832085905593825260079052919091209190915550565b6001600160e01b031981168114610d4857600080fd5b60006020828403121561181157600080fd5b8135610ca9816117e9565b60005b8381101561183757818101518382015260200161181f565b83811115610bcf5750506000910152565b6000815180845261186081602086016020860161181c565b601f01601f19169290920160200192915050565b602081526000610ca96020830184611848565b60006020828403121561189957600080fd5b5035919050565b80356001600160a01b03811681146118b757600080fd5b919050565b600080604083850312156118cf57600080fd5b6118d8836118a0565b946020939093013593505050565b803580151581146118b757600080fd5b60006020828403121561190857600080fd5b610ca9826118e6565b60008060006060848603121561192657600080fd5b61192f846118a0565b925061193d602085016118a0565b9150604084013590509250925092565b60006020828403121561195f57600080fd5b610ca9826118a0565b6000806040838503121561197b57600080fd5b611984836118a0565b9150611992602084016118e6565b90509250929050565b634e487b7160e01b600052604160045260246000fd5b600080600080608085870312156119c757600080fd5b6119d0856118a0565b93506119de602086016118a0565b925060408501359150606085013567ffffffffffffffff80821115611a0257600080fd5b818701915087601f830112611a1657600080fd5b813581811115611a2857611a2861199b565b604051601f8201601f19908116603f01168101908382118183101715611a5057611a5061199b565b816040528281528a6020848701011115611a6957600080fd5b82602086016020830137600060208483010152809550505050505092959194509250565b60008060408385031215611aa057600080fd5b611aa9836118a0565b9150611992602084016118a0565b600181811c90821680611acb57607f821691505b60208210811415611aec57634e487b7160e01b600052602260045260246000fd5b50919050565b634e487b7160e01b600052601160045260246000fd5b60008219821115611b1b57611b1b611af2565b500190565b6020808252818101527f4f776e61626c653a2063616c6c6572206973206e6f7420746865206f776e6572604082015260600190565b60208082526031908201527f4552433732313a207472616e736665722063616c6c6572206973206e6f74206f6040820152701ddb995c881b9bdc88185c1c1c9bdd9959607a1b606082015260800190565b634e487b7160e01b600052603260045260246000fd5b60008351611bce81846020880161181c565b835190830190611be281836020880161181c565b64173539b7b760d91b9101908152600501949350505050565b600082821015611c0d57611c0d611af2565b500390565b60208082526032908201527f4552433732313a207472616e7366657220746f206e6f6e20455243373231526560408201527131b2b4bb32b91034b6b83632b6b2b73a32b960711b606082015260800190565b6000600019821415611c7857611c78611af2565b5060010190565b634e487b7160e01b600052601260045260246000fd5b600082611ca457611ca4611c7f565b500490565b600082611cb857611cb8611c7f565b500690565b6001600160a01b0385811682528416602082015260408101839052608060608201819052600090611cf090830184611848565b9695505050505050565b600060208284031215611d0c57600080fd5b8151610ca9816117e9565b634e487b7160e01b600052603160045260246000fdfea2646970667358221220dd8bef1dc7135f50faea79f27042bcc6ce0d49424fd53bbdcbd4e52df3edb1c764736f6c634300080a0033",
  "linkReferences": {},
  "deployedLinkReferences": {}
}